{
  "contractName": "Charity",
  "abi": [
    {
      "constant": true,
      "inputs": [],
      "name": "totalFund",
      "outputs": [
        {
          "name": "",
          "type": "uint256"
        }
      ],
      "payable": false,
      "stateMutability": "view",
      "type": "function",
      "signature": "0x100aca47"
    },
    {
      "constant": true,
      "inputs": [],
      "name": "receiverAddress",
      "outputs": [
        {
          "name": "",
          "type": "address"
        }
      ],
      "payable": false,
      "stateMutability": "view",
      "type": "function",
      "signature": "0x16fed3e2"
    },
    {
      "constant": true,
      "inputs": [],
      "name": "numberOfSenders",
      "outputs": [
        {
          "name": "",
          "type": "uint256"
        }
      ],
      "payable": false,
      "stateMutability": "view",
      "type": "function",
      "signature": "0x226b5a0e"
    },
    {
      "constant": true,
      "inputs": [],
      "name": "requiredFund",
      "outputs": [
        {
          "name": "",
          "type": "uint256"
        }
      ],
      "payable": false,
      "stateMutability": "view",
      "type": "function",
      "signature": "0x3c471c19"
    },
    {
      "constant": true,
      "inputs": [],
      "name": "owner",
      "outputs": [
        {
          "name": "",
          "type": "address"
        }
      ],
      "payable": false,
      "stateMutability": "view",
      "type": "function",
      "signature": "0x8da5cb5b"
    },
    {
      "constant": true,
      "inputs": [
        {
          "name": "",
          "type": "uint256"
        }
      ],
      "name": "senders",
      "outputs": [
        {
          "name": "",
          "type": "address"
        }
      ],
      "payable": false,
      "stateMutability": "view",
      "type": "function",
      "signature": "0x9977c78a"
    },
    {
      "constant": true,
      "inputs": [],
      "name": "start",
      "outputs": [
        {
          "name": "",
          "type": "uint256"
        }
      ],
      "payable": false,
      "stateMutability": "view",
      "type": "function",
      "signature": "0xbe9a6555"
    },
    {
      "constant": true,
      "inputs": [],
      "name": "deadLine",
      "outputs": [
        {
          "name": "",
          "type": "uint256"
        }
      ],
      "payable": false,
      "stateMutability": "view",
      "type": "function",
      "signature": "0xbef3a083"
    },
    {
      "inputs": [
        {
          "name": "_requiredFund",
          "type": "uint256"
        },
        {
          "name": "_receiverAddress",
          "type": "address"
        },
        {
          "name": "_day",
          "type": "uint256"
        }
      ],
      "payable": false,
      "stateMutability": "nonpayable",
      "type": "constructor",
      "signature": "constructor"
    },
    {
      "constant": false,
      "inputs": [
        {
          "name": "_value",
          "type": "uint256"
        },
        {
          "name": "publicInfo",
          "type": "bool"
        }
      ],
      "name": "sendMoney",
      "outputs": [],
      "payable": true,
      "stateMutability": "payable",
      "type": "function",
      "signature": "0xfa673cc0"
    },
    {
      "constant": false,
      "inputs": [],
      "name": "overTime",
      "outputs": [
        {
          "name": "",
          "type": "bool"
        }
      ],
      "payable": false,
      "stateMutability": "nonpayable",
      "type": "function",
      "signature": "0xbc2c1e77"
    }
  ],
  "bytecode": "0x6080604052670de0b6b3a7640000600355620151804281151561001e57fe5b04600655600060085534801561003357600080fd5b506040516060806106d783398101806040528101908080519060200190929190805190602001909291908051906020019092919050505033600460006101000a81548173ffffffffffffffffffffffffffffffffffffffff021916908373ffffffffffffffffffffffffffffffffffffffff1602179055508260008190555081600160006101000a81548173ffffffffffffffffffffffffffffffffffffffff021916908373ffffffffffffffffffffffffffffffffffffffff16021790555080600654016002819055505050506105c7806101106000396000f3006080604052600436106100a4576000357c0100000000000000000000000000000000000000000000000000000000900463ffffffff168063100aca47146100a957806316fed3e2146100d4578063226b5a0e1461012b5780633c471c19146101565780638da5cb5b146101815780639977c78a146101d8578063bc2c1e7714610245578063be9a655514610274578063bef3a0831461029f578063fa673cc0146102ca575b600080fd5b3480156100b557600080fd5b506100be6102f6565b6040518082815260200191505060405180910390f35b3480156100e057600080fd5b506100e96102fc565b604051808273ffffffffffffffffffffffffffffffffffffffff1673ffffffffffffffffffffffffffffffffffffffff16815260200191505060405180910390f35b34801561013757600080fd5b50610140610322565b6040518082815260200191505060405180910390f35b34801561016257600080fd5b5061016b610328565b6040518082815260200191505060405180910390f35b34801561018d57600080fd5b5061019661032e565b604051808273ffffffffffffffffffffffffffffffffffffffff1673ffffffffffffffffffffffffffffffffffffffff16815260200191505060405180910390f35b3480156101e457600080fd5b5061020360048036038101908080359060200190929190505050610354565b604051808273ffffffffffffffffffffffffffffffffffffffff1673ffffffffffffffffffffffffffffffffffffffff16815260200191505060405180910390f35b34801561025157600080fd5b5061025a610392565b604051808215151515815260200191505060405180910390f35b34801561028057600080fd5b506102896103ab565b6040518082815260200191505060405180910390f35b3480156102ab57600080fd5b506102b46103b1565b6040518082815260200191505060405180910390f35b6102f4600480360381019080803590602001909291908035151590602001909291905050506103b7565b005b60055481565b600160009054906101000a900473ffffffffffffffffffffffffffffffffffffffff1681565b60085481565b60005481565b600460009054906101000a900473ffffffffffffffffffffffffffffffffffffffff1681565b60078181548110151561036357fe5b906000526020600020016000915054906101000a900473ffffffffffffffffffffffffffffffffffffffff1681565b600060025462015180428115156103a557fe5b50505090565b60065481565b60025481565b60025462015180428115156103c857fe5b04111515156103d657600080fd5b343373ffffffffffffffffffffffffffffffffffffffff1631101515156103fc57600080fd5b6003548202341015151561040f57600080fd5b6003548202341115610469573373ffffffffffffffffffffffffffffffffffffffff166108fc600354840234039081150290604051600060405180830381858888f19350505050158015610467573d6000803e3d6000fd5b505b816005600082825401925050819055506001151581151514156104ff5760073390806001815401808255809150509060018203906000526020600020016000909192909190916101000a81548173ffffffffffffffffffffffffffffffffffffffff021916908373ffffffffffffffffffffffffffffffffffffffff160217905550506008600081548092919060010191905055505b60005460055410151561051557610514610519565b5b5050565b600160009054906101000a900473ffffffffffffffffffffffffffffffffffffffff1673ffffffffffffffffffffffffffffffffffffffff166108fc3073ffffffffffffffffffffffffffffffffffffffff16319081150290604051600060405180830381858888f19350505050158015610598573d6000803e3d6000fd5b505600a165627a7a7230582092c2352f1407d9ea66ca6c0bf5f11a9b4ec96bfbc86005ee0e2b07ea5fca9f130029",
  "source": "pragma solidity ^0.4.23;\n\ncontract Charity {\n    uint public requiredFund;\n    address public receiverAddress;\n    uint public deadLine; // time for activity (in days)\n    uint ETH = 1 ether;\n    address public owner;\n    uint public totalFund;\n    \n    uint public start = now/1 days;\n\n    address[] public senders;\n    uint public numberOfSenders = 0;\n\n    constructor(uint _requiredFund, address _receiverAddress, uint _day) public {\n        owner = msg.sender;\n        requiredFund = _requiredFund; // (in ETH)\n        receiverAddress = _receiverAddress;\n        deadLine = start + _day;\n    }\n    \n    function sendMoney(uint _value, bool publicInfo) public payable {\n        require(now / 1 days <= deadLine);\n        require(msg.sender.balance >= msg.value);\n        require(msg.value >= _value*ETH); // value ở đây là số tiền mình sẽ chuyển vào contract (chỗ value ở Remix); hàm đảm bảo số tiền chuyển vào contract phải >= số tiền sẽ chuyển đi\n        if (msg.value > _value*ETH) {\n            msg.sender.transfer(msg.value - _value*ETH); // hàm rút lại số tiền thừa của phần chuyển vào nếu nó lớn hơn chỗ chuyển đi\n        }\n        totalFund += _value;\n        \n        if(publicInfo == true) {\n            senders.push(msg.sender);\n            numberOfSenders ++;\n        }\n        \n        if(totalFund >= requiredFund) {\n            sendToReceiver();\n        }\n    }\n\n    function overTime() public returns (bool) {\n        if(now / 1 days == deadLine) {\n            if(totalFund < requiredFund) {\n                \n            }\n        }\n    }\n    \n    function sendToReceiver() internal {\n        receiverAddress.transfer(address(this).balance); // chuyển toàn bộ số tiền ở contract vào địa chỉ bên\n    }\n}\n",
  "sourcePath": "/home/dien/Desktop/Intern_Sun/New/contracts/Charity.sol",
  "compiler": {
    "name": "solc",
    "version": "0.4.23+commit.124ca40d.Emscripten.clang"
  },
  "schemaVersion": "3.0.3",
  "updatedAt": "2019-04-03T12:42:56.356Z",
  "devdoc": {
    "methods": {}
  },
  "userdoc": {
    "methods": {}
  }
}